:020000040800F2
:1000000000800120810B0008250B0008270B000849
:10001000290B00082B0B00082D0B00080000000026
:100020000000000000000000000000002F0B00088E
:10003000310B000800000000330B0008350B0008EE
:10004000D10B0008D10B0008D10B0008D10B000820
:10005000D10B0008D10B0008D10B0008D10B000810
:10006000D10B0008D10B0008D10B0008D10B000800
:10007000D10B0008D10B0008D10B0008D10B0008F0
:10008000D10B0008D10B0008D10B0008D10B0008E0
:10009000D10B0008D10B0008D10B0008D10B0008D0
:1000A000D10B0008D10B0008D10B0008D10B0008C0
:1000B000D10B0008D10B0008D10B0008D10B0008B0
:1000C000D10B0008D10B0008D10B0008D10B0008A0
:1000D000D10B0008D10B0008D10B0008D10B000890
:1000E000D10B0008D10B0008D10B0008D10B000880
:1000F000D10B0008D10B0008D10B0008D10B000870
:10010000D10B0008D10B0008D10B0008D10B00085F
:10011000D10B0008D10B0008D10B0008D10B00084F
:10012000D10B0008D10B0008D10B0008D10B00083F
:10013000D10B0008D10B0008D10B0008D10B00082F
:10014000D10B0008D10B0008D10B0008D10B00081F
:10015000D10B0008D10B0008D10B0008D10B00080F
:10016000D10B0008D10B0008D10B0008D10B0008FF
:10017000D10B0008D10B00080000000000000000B7
:08018000D10B0008D10B0008AF
:1001880010B5054C237833B9044B13B10448AFF3C9
:1001980000800123237010BD0C0000200000000027
:1001A8002C0C000808B5034B1BB103490348AFF3F7
:1001B800008008BD00000000100000202C0C000882
:1001C80038B50F4B0546186808B9012038BD0D4AE7
:1001D8004FF47A73B3FBF0F31068B0FBF3F000F060
:1001E8007DF804460028F0D10F2DEED802462946A6
:1001F8004FF0FF3000F03EF8034B20461D6038BD3D
:1002080000000020080000200400002010B5032092
:1002180000F01EF80020FFF7D3FF044618B900F0DD
:1002280065FC204610BD0124FBE70000034A044991
:10023800136809680B441360704700BF280000204A
:1002480000000020014B1868704700BF28000020FC
:10025800074AD36823F4E0631B041B0C43F0BF6315
:10026800000243F4003300F4E0600343D3607047B6
:1002780000ED00E0174B30B5DC68C4F30224C4F18C
:100288000703251D042B28BF0423062D4FF0010565
:1002980005FA03F303F1FF338CBF033C0024194034
:1002A800A14005FA04F4013C2240002842EA010278
:1002B8004FEA0212ADBF00F1604000F00F00064B9C
:1002C80000F56140B5BFD2B2D2B21A5480F800230B
:1002D80030BD00BF00ED00E014ED00E00138B0F1E2
:1002E800807F0AD2064B074A5860F02182F8231013
:1002F8000020072298601A6070470120704700BFED
:1003080010E000E000ED00E0024B186800F4C06067
:10031800704700BF00700040174B1A68B0F5007FA7
:1003280002F4C0621CD1B2F5007F15D01A6822F41D
:10033800C06242F400721A60104A116832224A43BD
:100348000F49B2FBF1F2194601325869400500D550
:1003580022B94B695B050DD400207047013AF4E7D8
:10036800B2F5806F1FBF1A6822F4C06242F480623F
:100378001A60F1E703207047007000400800002071
:1003880040420F0037B51E4DAB6DDA00044618D554
:10039800FFF7BAFFB0F5007F23D1802C29D9A02C14
:1003A8008CBF02200120174A136823F00703034378
:1003B8001360136803F00703181A18BF012003B06D
:1003C80030BDAB6D43F08053AB65AB6D03F080532C
:1003D8000193019BFFF798FFAB6D23F08053AB654A
:1003E800D8E7802C07D808D0A4F1700358425841A8
:1003F800D9E70020D7E70320D5E70220D3E700BFDD
:100408000010024000200240224B9A68D96812F07E
:100418000C0205D00C2A15D101F00301012918D1CD
:1004280019681D48090755BFD3F894101968C1F316
:100438000321C1F3031150F821004AB30C2A09D053
:1004480000207047042A22D0082A144818BF002028
:1004580070470020DA6802F00302022A15D00F491B
:10046800032A08BF0846DA68D968DB68C3F3416322
:10047800C1F30621C2F302120133484301325B0083
:10048800B0FBF2F0B0FBF3F070470548EBE7044827
:10049800704700BF00100240540C000800127A0098
:1004A8000024F4002DE9F743054608B9012047E088
:1004B800A64C0368A668E768DB0606F00C0607F09A
:1004C800030773D51EB10C2E52D1012F50D12368CA
:1004D800980702D5AB69002BE8D02368286A19076A
:1004E80056BFD4F8943023681B0903F0F003834205
:1004F80029D2FFF747FF0028D8D1236843F0080323
:10050800236023682A6A23F0F00313432360636897
:10051800EA6923F47F4343EA02236360FFF774FF29
:10052800A3688B4AC3F30313D35C03F01F03D840BB
:10053800884B1860884B1868FFF742FE002835D0B2
:1005480003B0BDE8F083236843F008032360236801
:1005580023F0F003034323606368EA6923F47F43CD
:1005680043EA02236360FFF70DFF0028D6D09DE71A
:10057800AB69002B36D0236843F001032360FFF7F3
:1005880061FE804623689A0724D5236843F0080350
:10059800236023682A6A23F0F00313432360636807
:1005A800EA6923F47F4343EA022363602B68D80790
:1005B80029D42B68990767D42B68180700F19C8009
:1005C8002B68590700F1CA80A86A002840F03381D7
:1005D8000020B5E7FFF736FEA0EB08000228D1D9C6
:1005E8000320ADE7236823F001032360FFF72AFE09
:1005F800804623689B07D9D5FFF724FEA0EB0800A7
:100608000228F6D9ECE7082E03D00C2E08D1032FC8
:1006180006D123689A03CCD56B68002BC9D145E76E
:100628006B68B3F5803F10D1236843F480332360AF
:10063800FFF708FE804623689B03BAD4FFF702FE43
:10064800A0EB08006428F6D9CAE7B3F5A02F04D1B7
:10065800236843F480232360E6E7226822F480328B
:100668002260226822F480222260002BE0D1FFF76A
:10067800E9FD8046236898039BD5FFF7E3FDA0EBCF
:1006880008006428F6D9ABE7042E03D00C2E10D14D
:10069800022F0ED12368590503D5EB68002B3FF4D0
:1006A80005AF63682A6923F0F85343EA026363607D
:1006B80082E7EB687BB1236843F480732360FFF71C
:1006C800C1FD074623685A05EBD4FFF7BBFDC01BE5
:1006D8000228F7D984E7236823F480732360FFF79F
:1006E800B1FD074623685B057FF566AFFFF7AAFDF6
:1006F800C01B0228F6D973E76B699BB1D4F8943014
:1007080043F00103C4F89430FFF79CFD0746D4F882
:1007180094309A073FF554AFFFF794FDC01B0228A9
:10072800F5D95DE7D4F8943023F00103C4F8943088
:10073800FFF788FD0746D4F894309B077FF540AF54
:10074800FFF780FDC01B0228F5D949E700100240D9
:10075800440C00080800002004000020A36DD80005
:1007680029D4A36D43F08053A365A36D03F0805390
:100778000193019B4FF00108794F3B68D9051DD5BE
:10078800AB68012B2BD1D4F8903043F00103C4F8A7
:100798009030FFF757FD41F288390746D4F890307A
:1007A8009B0742D5B8F1000F3FF40EAFA36D23F0BD
:1007B8008053A36508E74FF00008DDE73B6843F482
:1007C80080733B60FFF73EFD81463B68DA05D7D46E
:1007D800FFF738FDA0EB09000228F6D900E7052B42
:1007E80006D1D4F8903043F00403C4F89030CAE737
:1007F800D4F8902022F00102C4F89020D4F8902078
:1008080022F00402C4F89020002BC2D1FFF71AFD91
:1008180041F288390746D4F890309807C2D5FFF7D7
:1008280011FDC01B4845F6D9DAE6FFF70BFDC01BE2
:100838004845B3D9D4E60C2E5CD02368022823F0AF
:10084800807323603BD1FFF7FDFC064623689901BE
:100858002FD4E268434B1340EA6A13436A6B43EAB6
:1008680002232A6B013A43EA0213AA6B120943EAEC
:100878004243EA6B5208013A43EA42532A6C52084F
:10088800013A43EA4263E360236843F080732360DC
:10089800E36843F08073E360FFF7D4FC0546236800
:1008A8009A013FF595AEFFF7CDFC401B0228F6D91B
:1008B80096E6FFF7C7FC801B0228C7D990E6236895
:1008C80013F0205F02BFE36823F00303E360E368EB
:1008D80023F0887323F48033E360FFF7B3FC054605
:1008E80023689B017FF574AEFFF7ACFC401B022820
:1008F800F6D975E601283FF423AEE368EA6A03F007
:10090800030191427FF4D2AD296B03F070020139E3
:10091800B2EB011F7FF4CAAD696B03F4FE42B2EB80
:10092800012F7FF4C3ADAA6B073A03F4003118BF57
:10093800012291427FF4BAADEA6B520803F4C00178
:10094800013AB1EB425F7FF4B1AD2A6C5208013A2B
:1009580003F0C063B3EB426F14BF01200020EFE542
:10096800007000408C809DF92DE9F0410E46044648
:1009780010B90120BDE8F081414A136803F007036C
:100988008B422AD32368D90732D421688A075CD4DA
:100998003B4A136803F007039E425ED311F0040F2D
:1009A800384D65D10B0706D5AB68226923F460532F
:1009B80043EAC203AB60FFF727FDAB68324AC3F3D3
:1009C8000313BDE8F041D35C03F01F03D8402F4B5D
:1009D80018602F4B1868FFF7F3BB136823F0070361
:1009E8000B431360136803F007039942C1D1C9E7A9
:1009F8006268244D032A2B681BD113F0007FB8D0FE
:100A0800AB6823F003031343AB60FFF71BFC41F211
:100A180088380746AB68626803F00C03B3EB820FB3
:100A2800B3D0FFF70FFCC01B4045F3D90320BDE846
:100A3800F081022A02D113F4003FE0E712B913F063
:100A4800020FDCE713F4806FD9E70E4AA0689368B9
:100A580023F0F003034393609AE7136823F0070336
:100A680033431360136803F007039E4281D195E76F
:100A7800AB68E26823F4E0631343AB6092E700BF1E
:100A88000020024000100240440C0008080000202A
:100A98000400002000B597B04422002105A800F00A
:100AA800B9F814220021684600F0B4F81023059321
:100AB80001230B9305A860230D93FFF7F3FC002196
:100AC8000F23684600930191029103910491FFF767
:100AD8004BFF4FF40070FFF71FFC17B05DF804FBE5
:100AE80008B5FFF793FBFFF7D5FFFEE70A4B1A6E31
:100AF80042F001021A661A6E82B002F001020092F8
:100B0800009A9A6D42F080529A659B6D03F080536B
:100B18000193019B02B07047001002407047FEE746
:100B2800FEE7FEE7FEE7704770477047FFF77EBBBA
:100B38000F49D1F8883043F47003C1F888300D4B61
:100B48001A68002042F001021A6098601A6822F0C0
:100B5800A85222F410221A604FF48052DA601A6800
:100B680022F480221A6098614FF000638B6070470E
:100B780000ED00E000100240DFF834D0002103E06F
:100B88000C4B5B58435004310B480C4B42189A42AB
:100B9800F6D30B4A02E0002342F8043B094B9A4281
:100BA800F9D3FFF7C5FF00F011F8FFF799FFFEE74B
:100BB800008001208C0C0008000000200C000020A0
:100BC8000C0000202C000020FEE7000070B50D4E40
:100BD8000D4CA41BA4100025A54209D10B4E0C4CAA
:100BE80000F020F8A41BA4100025A54205D170BD73
:100BF80056F8253098470135EEE756F825309847DE
:100C08000135F2E7840C0008840C0008840C000805
:100C1800880C000802440346934200D1704703F849
:100C2800011BF9E7F8B500BFF8BC08BC9E46704741
:0C0C3800F8B500BFF8BC08BC9E46704731
:100C44000000000000000000010203040607080978
:100C5400A0860100400D0300801A060000350C0038
:100C640040420F0080841E0000093D0000127A00FB
:100C74000024F40000366E010048E801006CDC0238
:040C8400AD010008B6
:040C880089010008D6
:0C0C8C00010000001000000000093D0005
:0400000508000B8163
:00000001FF
